{
  "address": "0xFAD523CDAB3D2aD76b71ea5e864997218B546214",
  "abi": [
    {
      "inputs": [],
      "stateMutability": "nonpayable",
      "type": "constructor"
    },
    {
      "inputs": [],
      "name": "ERC721EnumerableForbiddenBatchMint",
      "type": "error"
    },
    {
      "inputs": [
        {
          "internalType": "address",
          "name": "sender",
          "type": "address"
        },
        {
          "internalType": "uint256",
          "name": "tokenId",
          "type": "uint256"
        },
        {
          "internalType": "address",
          "name": "owner",
          "type": "address"
        }
      ],
      "name": "ERC721IncorrectOwner",
      "type": "error"
    },
    {
      "inputs": [
        {
          "internalType": "address",
          "name": "operator",
          "type": "address"
        },
        {
          "internalType": "uint256",
          "name": "tokenId",
          "type": "uint256"
        }
      ],
      "name": "ERC721InsufficientApproval",
      "type": "error"
    },
    {
      "inputs": [
        {
          "internalType": "address",
          "name": "approver",
          "type": "address"
        }
      ],
      "name": "ERC721InvalidApprover",
      "type": "error"
    },
    {
      "inputs": [
        {
          "internalType": "address",
          "name": "operator",
          "type": "address"
        }
      ],
      "name": "ERC721InvalidOperator",
      "type": "error"
    },
    {
      "inputs": [
        {
          "internalType": "address",
          "name": "owner",
          "type": "address"
        }
      ],
      "name": "ERC721InvalidOwner",
      "type": "error"
    },
    {
      "inputs": [
        {
          "internalType": "address",
          "name": "receiver",
          "type": "address"
        }
      ],
      "name": "ERC721InvalidReceiver",
      "type": "error"
    },
    {
      "inputs": [
        {
          "internalType": "address",
          "name": "sender",
          "type": "address"
        }
      ],
      "name": "ERC721InvalidSender",
      "type": "error"
    },
    {
      "inputs": [
        {
          "internalType": "uint256",
          "name": "tokenId",
          "type": "uint256"
        }
      ],
      "name": "ERC721NonexistentToken",
      "type": "error"
    },
    {
      "inputs": [
        {
          "internalType": "address",
          "name": "owner",
          "type": "address"
        },
        {
          "internalType": "uint256",
          "name": "index",
          "type": "uint256"
        }
      ],
      "name": "ERC721OutOfBoundsIndex",
      "type": "error"
    },
    {
      "inputs": [
        {
          "internalType": "address",
          "name": "owner",
          "type": "address"
        }
      ],
      "name": "OwnableInvalidOwner",
      "type": "error"
    },
    {
      "inputs": [
        {
          "internalType": "address",
          "name": "account",
          "type": "address"
        }
      ],
      "name": "OwnableUnauthorizedAccount",
      "type": "error"
    },
    {
      "inputs": [],
      "name": "ReentrancyGuardReentrantCall",
      "type": "error"
    },
    {
      "anonymous": false,
      "inputs": [
        {
          "indexed": true,
          "internalType": "address",
          "name": "owner",
          "type": "address"
        },
        {
          "indexed": true,
          "internalType": "address",
          "name": "approved",
          "type": "address"
        },
        {
          "indexed": true,
          "internalType": "uint256",
          "name": "tokenId",
          "type": "uint256"
        }
      ],
      "name": "Approval",
      "type": "event"
    },
    {
      "anonymous": false,
      "inputs": [
        {
          "indexed": true,
          "internalType": "address",
          "name": "owner",
          "type": "address"
        },
        {
          "indexed": true,
          "internalType": "address",
          "name": "operator",
          "type": "address"
        },
        {
          "indexed": false,
          "internalType": "bool",
          "name": "approved",
          "type": "bool"
        }
      ],
      "name": "ApprovalForAll",
      "type": "event"
    },
    {
      "anonymous": false,
      "inputs": [
        {
          "indexed": true,
          "internalType": "uint256",
          "name": "eventId",
          "type": "uint256"
        },
        {
          "indexed": false,
          "internalType": "string",
          "name": "name",
          "type": "string"
        },
        {
          "indexed": true,
          "internalType": "address",
          "name": "organizer",
          "type": "address"
        },
        {
          "indexed": false,
          "internalType": "uint256",
          "name": "ticketPrice",
          "type": "uint256"
        },
        {
          "indexed": false,
          "internalType": "uint256",
          "name": "maxSupply",
          "type": "uint256"
        }
      ],
      "name": "EventCreated",
      "type": "event"
    },
    {
      "anonymous": false,
      "inputs": [
        {
          "indexed": true,
          "internalType": "address",
          "name": "previousOwner",
          "type": "address"
        },
        {
          "indexed": true,
          "internalType": "address",
          "name": "newOwner",
          "type": "address"
        }
      ],
      "name": "OwnershipTransferred",
      "type": "event"
    },
    {
      "anonymous": false,
      "inputs": [
        {
          "indexed": true,
          "internalType": "uint256",
          "name": "ticketId",
          "type": "uint256"
        },
        {
          "indexed": true,
          "internalType": "address",
          "name": "seller",
          "type": "address"
        },
        {
          "indexed": false,
          "internalType": "uint256",
          "name": "price",
          "type": "uint256"
        }
      ],
      "name": "TicketListed",
      "type": "event"
    },
    {
      "anonymous": false,
      "inputs": [
        {
          "indexed": true,
          "internalType": "uint256",
          "name": "ticketId",
          "type": "uint256"
        },
        {
          "indexed": true,
          "internalType": "address",
          "name": "seller",
          "type": "address"
        }
      ],
      "name": "TicketListingCancelled",
      "type": "event"
    },
    {
      "anonymous": false,
      "inputs": [
        {
          "indexed": true,
          "internalType": "uint256",
          "name": "ticketId",
          "type": "uint256"
        },
        {
          "indexed": true,
          "internalType": "uint256",
          "name": "eventId",
          "type": "uint256"
        },
        {
          "indexed": true,
          "internalType": "address",
          "name": "buyer",
          "type": "address"
        },
        {
          "indexed": false,
          "internalType": "uint256",
          "name": "ticketNumber",
          "type": "uint256"
        }
      ],
      "name": "TicketMinted",
      "type": "event"
    },
    {
      "anonymous": false,
      "inputs": [
        {
          "indexed": true,
          "internalType": "uint256",
          "name": "ticketId",
          "type": "uint256"
        },
        {
          "indexed": true,
          "internalType": "address",
          "name": "seller",
          "type": "address"
        },
        {
          "indexed": true,
          "internalType": "address",
          "name": "buyer",
          "type": "address"
        },
        {
          "indexed": false,
          "internalType": "uint256",
          "name": "price",
          "type": "uint256"
        }
      ],
      "name": "TicketSold",
      "type": "event"
    },
    {
      "anonymous": false,
      "inputs": [
        {
          "indexed": true,
          "internalType": "address",
          "name": "from",
          "type": "address"
        },
        {
          "indexed": true,
          "internalType": "address",
          "name": "to",
          "type": "address"
        },
        {
          "indexed": true,
          "internalType": "uint256",
          "name": "tokenId",
          "type": "uint256"
        }
      ],
      "name": "Transfer",
      "type": "event"
    },
    {
      "inputs": [
        {
          "internalType": "address",
          "name": "to",
          "type": "address"
        },
        {
          "internalType": "uint256",
          "name": "tokenId",
          "type": "uint256"
        }
      ],
      "name": "approve",
      "outputs": [],
      "stateMutability": "nonpayable",
      "type": "function"
    },
    {
      "inputs": [
        {
          "internalType": "address",
          "name": "owner",
          "type": "address"
        }
      ],
      "name": "balanceOf",
      "outputs": [
        {
          "internalType": "uint256",
          "name": "",
          "type": "uint256"
        }
      ],
      "stateMutability": "view",
      "type": "function"
    },
    {
      "inputs": [
        {
          "internalType": "uint256",
          "name": "_ticketId",
          "type": "uint256"
        }
      ],
      "name": "buyListedTicket",
      "outputs": [],
      "stateMutability": "payable",
      "type": "function"
    },
    {
      "inputs": [
        {
          "internalType": "uint256",
          "name": "_eventId",
          "type": "uint256"
        }
      ],
      "name": "buyTicket",
      "outputs": [
        {
          "internalType": "uint256",
          "name": "",
          "type": "uint256"
        }
      ],
      "stateMutability": "payable",
      "type": "function"
    },
    {
      "inputs": [
        {
          "internalType": "uint256",
          "name": "_ticketId",
          "type": "uint256"
        }
      ],
      "name": "cancelListing",
      "outputs": [],
      "stateMutability": "nonpayable",
      "type": "function"
    },
    {
      "inputs": [
        {
          "internalType": "string",
          "name": "_name",
          "type": "string"
        },
        {
          "internalType": "string",
          "name": "_description",
          "type": "string"
        },
        {
          "internalType": "uint256",
          "name": "_eventDate",
          "type": "uint256"
        },
        {
          "internalType": "uint256",
          "name": "_ticketPrice",
          "type": "uint256"
        },
        {
          "internalType": "uint256",
          "name": "_maxSupply",
          "type": "uint256"
        },
        {
          "internalType": "string",
          "name": "_imageCID",
          "type": "string"
        }
      ],
      "name": "createEvent",
      "outputs": [
        {
          "internalType": "uint256",
          "name": "",
          "type": "uint256"
        }
      ],
      "stateMutability": "nonpayable",
      "type": "function"
    },
    {
      "inputs": [
        {
          "internalType": "uint256",
          "name": "_eventId",
          "type": "uint256"
        }
      ],
      "name": "deactivateEvent",
      "outputs": [],
      "stateMutability": "nonpayable",
      "type": "function"
    },
    {
      "inputs": [],
      "name": "eventIdCounter",
      "outputs": [
        {
          "internalType": "uint256",
          "name": "",
          "type": "uint256"
        }
      ],
      "stateMutability": "view",
      "type": "function"
    },
    {
      "inputs": [
        {
          "internalType": "uint256",
          "name": "",
          "type": "uint256"
        }
      ],
      "name": "events",
      "outputs": [
        {
          "internalType": "uint256",
          "name": "id",
          "type": "uint256"
        },
        {
          "internalType": "string",
          "name": "name",
          "type": "string"
        },
        {
          "internalType": "string",
          "name": "description",
          "type": "string"
        },
        {
          "internalType": "uint256",
          "name": "eventDate",
          "type": "uint256"
        },
        {
          "internalType": "uint256",
          "name": "ticketPrice",
          "type": "uint256"
        },
        {
          "internalType": "uint256",
          "name": "maxSupply",
          "type": "uint256"
        },
        {
          "internalType": "uint256",
          "name": "soldTickets",
          "type": "uint256"
        },
        {
          "internalType": "address",
          "name": "organizer",
          "type": "address"
        },
        {
          "internalType": "bool",
          "name": "isActive",
          "type": "bool"
        },
        {
          "internalType": "string",
          "name": "imageCID",
          "type": "string"
        }
      ],
      "stateMutability": "view",
      "type": "function"
    },
    {
      "inputs": [],
      "name": "getActiveListings",
      "outputs": [
        {
          "internalType": "uint256[]",
          "name": "",
          "type": "uint256[]"
        }
      ],
      "stateMutability": "view",
      "type": "function"
    },
    {
      "inputs": [],
      "name": "getAllEvents",
      "outputs": [
        {
          "components": [
            {
              "internalType": "uint256",
              "name": "id",
              "type": "uint256"
            },
            {
              "internalType": "string",
              "name": "name",
              "type": "string"
            },
            {
              "internalType": "string",
              "name": "description",
              "type": "string"
            },
            {
              "internalType": "uint256",
              "name": "eventDate",
              "type": "uint256"
            },
            {
              "internalType": "uint256",
              "name": "ticketPrice",
              "type": "uint256"
            },
            {
              "internalType": "uint256",
              "name": "maxSupply",
              "type": "uint256"
            },
            {
              "internalType": "uint256",
              "name": "soldTickets",
              "type": "uint256"
            },
            {
              "internalType": "address",
              "name": "organizer",
              "type": "address"
            },
            {
              "internalType": "bool",
              "name": "isActive",
              "type": "bool"
            },
            {
              "internalType": "string",
              "name": "imageCID",
              "type": "string"
            }
          ],
          "internalType": "struct EventTicketNFT.Event[]",
          "name": "",
          "type": "tuple[]"
        }
      ],
      "stateMutability": "view",
      "type": "function"
    },
    {
      "inputs": [
        {
          "internalType": "uint256",
          "name": "tokenId",
          "type": "uint256"
        }
      ],
      "name": "getApproved",
      "outputs": [
        {
          "internalType": "address",
          "name": "",
          "type": "address"
        }
      ],
      "stateMutability": "view",
      "type": "function"
    },
    {
      "inputs": [
        {
          "internalType": "uint256",
          "name": "_eventId",
          "type": "uint256"
        }
      ],
      "name": "getEvent",
      "outputs": [
        {
          "components": [
            {
              "internalType": "uint256",
              "name": "id",
              "type": "uint256"
            },
            {
              "internalType": "string",
              "name": "name",
              "type": "string"
            },
            {
              "internalType": "string",
              "name": "description",
              "type": "string"
            },
            {
              "internalType": "uint256",
              "name": "eventDate",
              "type": "uint256"
            },
            {
              "internalType": "uint256",
              "name": "ticketPrice",
              "type": "uint256"
            },
            {
              "internalType": "uint256",
              "name": "maxSupply",
              "type": "uint256"
            },
            {
              "internalType": "uint256",
              "name": "soldTickets",
              "type": "uint256"
            },
            {
              "internalType": "address",
              "name": "organizer",
              "type": "address"
            },
            {
              "internalType": "bool",
              "name": "isActive",
              "type": "bool"
            },
            {
              "internalType": "string",
              "name": "imageCID",
              "type": "string"
            }
          ],
          "internalType": "struct EventTicketNFT.Event",
          "name": "",
          "type": "tuple"
        }
      ],
      "stateMutability": "view",
      "type": "function"
    },
    {
      "inputs": [
        {
          "internalType": "uint256",
          "name": "_ticketId",
          "type": "uint256"
        }
      ],
      "name": "getMarketplaceListing",
      "outputs": [
        {
          "components": [
            {
              "internalType": "uint256",
              "name": "ticketId",
              "type": "uint256"
            },
            {
              "internalType": "address",
              "name": "seller",
              "type": "address"
            },
            {
              "internalType": "uint256",
              "name": "price",
              "type": "uint256"
            },
            {
              "internalType": "bool",
              "name": "isActive",
              "type": "bool"
            }
          ],
          "internalType": "struct EventTicketNFT.MarketplaceListing",
          "name": "",
          "type": "tuple"
        }
      ],
      "stateMutability": "view",
      "type": "function"
    },
    {
      "inputs": [
        {
          "internalType": "uint256",
          "name": "_ticketId",
          "type": "uint256"
        }
      ],
      "name": "getTicket",
      "outputs": [
        {
          "components": [
            {
              "internalType": "uint256",
              "name": "id",
              "type": "uint256"
            },
            {
              "internalType": "uint256",
              "name": "eventId",
              "type": "uint256"
            },
            {
              "internalType": "uint256",
              "name": "ticketNumber",
              "type": "uint256"
            },
            {
              "internalType": "string",
              "name": "metadataURI",
              "type": "string"
            }
          ],
          "internalType": "struct EventTicketNFT.Ticket",
          "name": "",
          "type": "tuple"
        }
      ],
      "stateMutability": "view",
      "type": "function"
    },
    {
      "inputs": [
        {
          "internalType": "uint256",
          "name": "_eventId",
          "type": "uint256"
        },
        {
          "internalType": "address",
          "name": "_owner",
          "type": "address"
        }
      ],
      "name": "getTicketsByEventAndOwner",
      "outputs": [
        {
          "internalType": "uint256[]",
          "name": "",
          "type": "uint256[]"
        }
      ],
      "stateMutability": "view",
      "type": "function"
    },
    {
      "inputs": [
        {
          "internalType": "address",
          "name": "owner",
          "type": "address"
        },
        {
          "internalType": "address",
          "name": "operator",
          "type": "address"
        }
      ],
      "name": "isApprovedForAll",
      "outputs": [
        {
          "internalType": "bool",
          "name": "",
          "type": "bool"
        }
      ],
      "stateMutability": "view",
      "type": "function"
    },
    {
      "inputs": [
        {
          "internalType": "uint256",
          "name": "_ticketId",
          "type": "uint256"
        },
        {
          "internalType": "uint256",
          "name": "_price",
          "type": "uint256"
        }
      ],
      "name": "listTicket",
      "outputs": [],
      "stateMutability": "nonpayable",
      "type": "function"
    },
    {
      "inputs": [
        {
          "internalType": "uint256",
          "name": "",
          "type": "uint256"
        }
      ],
      "name": "marketplaceListings",
      "outputs": [
        {
          "internalType": "uint256",
          "name": "ticketId",
          "type": "uint256"
        },
        {
          "internalType": "address",
          "name": "seller",
          "type": "address"
        },
        {
          "internalType": "uint256",
          "name": "price",
          "type": "uint256"
        },
        {
          "internalType": "bool",
          "name": "isActive",
          "type": "bool"
        }
      ],
      "stateMutability": "view",
      "type": "function"
    },
    {
      "inputs": [],
      "name": "name",
      "outputs": [
        {
          "internalType": "string",
          "name": "",
          "type": "string"
        }
      ],
      "stateMutability": "view",
      "type": "function"
    },
    {
      "inputs": [],
      "name": "owner",
      "outputs": [
        {
          "internalType": "address",
          "name": "",
          "type": "address"
        }
      ],
      "stateMutability": "view",
      "type": "function"
    },
    {
      "inputs": [
        {
          "internalType": "uint256",
          "name": "tokenId",
          "type": "uint256"
        }
      ],
      "name": "ownerOf",
      "outputs": [
        {
          "internalType": "address",
          "name": "",
          "type": "address"
        }
      ],
      "stateMutability": "view",
      "type": "function"
    },
    {
      "inputs": [],
      "name": "renounceOwnership",
      "outputs": [],
      "stateMutability": "nonpayable",
      "type": "function"
    },
    {
      "inputs": [
        {
          "internalType": "address",
          "name": "from",
          "type": "address"
        },
        {
          "internalType": "address",
          "name": "to",
          "type": "address"
        },
        {
          "internalType": "uint256",
          "name": "tokenId",
          "type": "uint256"
        }
      ],
      "name": "safeTransferFrom",
      "outputs": [],
      "stateMutability": "nonpayable",
      "type": "function"
    },
    {
      "inputs": [
        {
          "internalType": "address",
          "name": "from",
          "type": "address"
        },
        {
          "internalType": "address",
          "name": "to",
          "type": "address"
        },
        {
          "internalType": "uint256",
          "name": "tokenId",
          "type": "uint256"
        },
        {
          "internalType": "bytes",
          "name": "data",
          "type": "bytes"
        }
      ],
      "name": "safeTransferFrom",
      "outputs": [],
      "stateMutability": "nonpayable",
      "type": "function"
    },
    {
      "inputs": [
        {
          "internalType": "address",
          "name": "operator",
          "type": "address"
        },
        {
          "internalType": "bool",
          "name": "approved",
          "type": "bool"
        }
      ],
      "name": "setApprovalForAll",
      "outputs": [],
      "stateMutability": "nonpayable",
      "type": "function"
    },
    {
      "inputs": [
        {
          "internalType": "bytes4",
          "name": "interfaceId",
          "type": "bytes4"
        }
      ],
      "name": "supportsInterface",
      "outputs": [
        {
          "internalType": "bool",
          "name": "",
          "type": "bool"
        }
      ],
      "stateMutability": "view",
      "type": "function"
    },
    {
      "inputs": [],
      "name": "symbol",
      "outputs": [
        {
          "internalType": "string",
          "name": "",
          "type": "string"
        }
      ],
      "stateMutability": "view",
      "type": "function"
    },
    {
      "inputs": [],
      "name": "ticketIdCounter",
      "outputs": [
        {
          "internalType": "uint256",
          "name": "",
          "type": "uint256"
        }
      ],
      "stateMutability": "view",
      "type": "function"
    },
    {
      "inputs": [
        {
          "internalType": "uint256",
          "name": "",
          "type": "uint256"
        }
      ],
      "name": "ticketToEvent",
      "outputs": [
        {
          "internalType": "uint256",
          "name": "",
          "type": "uint256"
        }
      ],
      "stateMutability": "view",
      "type": "function"
    },
    {
      "inputs": [
        {
          "internalType": "uint256",
          "name": "",
          "type": "uint256"
        }
      ],
      "name": "tickets",
      "outputs": [
        {
          "internalType": "uint256",
          "name": "id",
          "type": "uint256"
        },
        {
          "internalType": "uint256",
          "name": "eventId",
          "type": "uint256"
        },
        {
          "internalType": "uint256",
          "name": "ticketNumber",
          "type": "uint256"
        },
        {
          "internalType": "string",
          "name": "metadataURI",
          "type": "string"
        }
      ],
      "stateMutability": "view",
      "type": "function"
    },
    {
      "inputs": [
        {
          "internalType": "uint256",
          "name": "index",
          "type": "uint256"
        }
      ],
      "name": "tokenByIndex",
      "outputs": [
        {
          "internalType": "uint256",
          "name": "",
          "type": "uint256"
        }
      ],
      "stateMutability": "view",
      "type": "function"
    },
    {
      "inputs": [
        {
          "internalType": "address",
          "name": "owner",
          "type": "address"
        },
        {
          "internalType": "uint256",
          "name": "index",
          "type": "uint256"
        }
      ],
      "name": "tokenOfOwnerByIndex",
      "outputs": [
        {
          "internalType": "uint256",
          "name": "",
          "type": "uint256"
        }
      ],
      "stateMutability": "view",
      "type": "function"
    },
    {
      "inputs": [
        {
          "internalType": "uint256",
          "name": "tokenId",
          "type": "uint256"
        }
      ],
      "name": "tokenURI",
      "outputs": [
        {
          "internalType": "string",
          "name": "",
          "type": "string"
        }
      ],
      "stateMutability": "view",
      "type": "function"
    },
    {
      "inputs": [],
      "name": "totalSupply",
      "outputs": [
        {
          "internalType": "uint256",
          "name": "",
          "type": "uint256"
        }
      ],
      "stateMutability": "view",
      "type": "function"
    },
    {
      "inputs": [
        {
          "internalType": "address",
          "name": "from",
          "type": "address"
        },
        {
          "internalType": "address",
          "name": "to",
          "type": "address"
        },
        {
          "internalType": "uint256",
          "name": "tokenId",
          "type": "uint256"
        }
      ],
      "name": "transferFrom",
      "outputs": [],
      "stateMutability": "nonpayable",
      "type": "function"
    },
    {
      "inputs": [
        {
          "internalType": "address",
          "name": "newOwner",
          "type": "address"
        }
      ],
      "name": "transferOwnership",
      "outputs": [],
      "stateMutability": "nonpayable",
      "type": "function"
    },
    {
      "inputs": [
        {
          "internalType": "uint256",
          "name": "_ticketId",
          "type": "uint256"
        },
        {
          "internalType": "string",
          "name": "_metadataURI",
          "type": "string"
        }
      ],
      "name": "updateTicketMetadata",
      "outputs": [],
      "stateMutability": "nonpayable",
      "type": "function"
    }
  ],
  "transactionHash": "0x48182925426f3c25eb96a116287d815cd73170f89d9a0f198044ea7d196c7f79",
  "args": [],
  "numDeployments": 1,
  "solcInputHash": "c7436eb20a5d00d057c12a69e8eda192",
  "bytecode": "0x60806040523480156200001157600080fd5b50336040518060400160405280600e81526020016d115d995b9d151a58dad95d13919560921b81525060405180604001604052806005815260200164115513919560da1b8152508160009081620000699190620001b8565b506001620000788282620001b8565b5050506001600160a01b038116620000aa57604051631e4fbdf760e01b81526000600482015260240160405180910390fd5b620000b581620000c1565b506001600b5562000284565b600a80546001600160a01b038381166001600160a01b0319831681179093556040519116919082907f8be0079c531659141344cd1fd0a4f28419497f9722a3daafe3b4186f6b6457e090600090a35050565b634e487b7160e01b600052604160045260246000fd5b600181811c908216806200013e57607f821691505b6020821081036200015f57634e487b7160e01b600052602260045260246000fd5b50919050565b601f821115620001b357600081815260208120601f850160051c810160208610156200018e5750805b601f850160051c820191505b81811015620001af578281556001016200019a565b5050505b505050565b81516001600160401b03811115620001d457620001d462000113565b620001ec81620001e5845462000129565b8462000165565b602080601f8311600181146200022457600084156200020b5750858301515b600019600386901b1c1916600185901b178555620001af565b600085815260208120601f198616915b82811015620002555788860151825594840194600190910190840162000234565b5085821015620002745787850151600019600388901b60f8161c191681555b5050505050600190811b01905550565b613f0780620002946000396000f3fe6080604052600436106102255760003560e01c80636d1884e01161012357806395d89b41116100ab578063d5a87ecb1161006f578063d5a87ecb146106db578063e01a0ebe146107a5578063e985e9c5146107bb578063f2fde38b146107db578063f6ac04da146107fb57600080fd5b806395d89b4114610644578063a22cb46514610659578063b88d4fde14610679578063c27a500d14610699578063c87b56dd146106bb57600080fd5b806387c35bc0116100f257806387c35bc0146105bb5780638802255f146105d05780638da5cb5b146105e657806394816f8314610604578063957a632e1461062457600080fd5b80636d1884e01461052c57806370a0823114610559578063715018a6146105795780637dc379fa1461058e57600080fd5b8063305a905a116101b15780635024885311610175578063502488531461048957806350b447121461049c5780636352211e146104cc57806365ec74b0146104ec57806367dd74ca1461051957600080fd5b8063305a905a1461039057806333a03d22146103b057806342842e0e146103d057806348c32093146103f05780634f6ccce71461046957600080fd5b80630b791430116101f85780630b791430146102db57806318160ddd1461031157806323b872dd146103305780632f745c5914610350578063305a67a81461037057600080fd5b806301ffc9a71461022a57806306fdde031461025f578063081812fc14610281578063095ea7b3146102b9575b600080fd5b34801561023657600080fd5b5061024a610245366004613462565b610828565b60405190151581526020015b60405180910390f35b34801561026b57600080fd5b50610274610853565b60405161025691906134d6565b34801561028d57600080fd5b506102a161029c3660046134e9565b6108e5565b6040516001600160a01b039091168152602001610256565b3480156102c557600080fd5b506102d96102d4366004613519565b61090e565b005b3480156102e757600080fd5b506102fb6102f63660046134e9565b61091d565b6040516102569a99989796959493929190613543565b34801561031d57600080fd5b506008545b604051908152602001610256565b34801561033c57600080fd5b506102d961034b3660046135c6565b610b19565b34801561035c57600080fd5b5061032261036b366004613519565b610ba9565b34801561037c57600080fd5b506102d961038b3660046134e9565b610c0e565b34801561039c57600080fd5b506102d96103ab366004613602565b610cfa565b3480156103bc57600080fd5b506102d96103cb3660046136d0565b610f2e565b3480156103dc57600080fd5b506102d96103eb3660046135c6565b610ffb565b3480156103fc57600080fd5b5061043f61040b3660046134e9565b601060205260009081526040902080546001820154600283015460039093015491926001600160a01b039091169160ff1684565b604080519485526001600160a01b0390931660208501529183015215156060820152608001610256565b34801561047557600080fd5b506103226104843660046134e9565b611016565b6102d96104973660046134e9565b61106f565b3480156104a857600080fd5b506104bc6104b73660046134e9565b611335565b6040516102569493929190613717565b3480156104d857600080fd5b506102a16104e73660046134e9565b6113e8565b3480156104f857600080fd5b5061050c610507366004613746565b6113f3565b6040516102569190613772565b6103226105273660046134e9565b611560565b34801561053857600080fd5b5061054c6105473660046134e9565b61186d565b604051610256919061385b565b34801561056557600080fd5b5061032261057436600461386e565b611aac565b34801561058557600080fd5b506102d9611af4565b34801561059a57600080fd5b506105ae6105a93660046134e9565b611b08565b6040516102569190613889565b3480156105c757600080fd5b5061050c611b7f565b3480156105dc57600080fd5b50610322600d5481565b3480156105f257600080fd5b50600a546001600160a01b03166102a1565b34801561061057600080fd5b5061032261061f3660046138c2565b611c80565b34801561063057600080fd5b506102d961063f3660046134e9565b611f47565b34801561065057600080fd5b50610274611f6d565b34801561066557600080fd5b506102d9610674366004613966565b611f7c565b34801561068557600080fd5b506102d96106943660046139a2565b611f87565b3480156106a557600080fd5b506106ae611f9e565b6040516102569190613a1e565b3480156106c757600080fd5b506102746106d63660046134e9565b612277565b3480156106e757600080fd5b506107676106f63660046134e9565b604080516080808201835260008083526020808401829052838501829052606093840182905294815260108552839020835191820184528054825260018101546001600160a01b03169482019490945260028401549281019290925260039092015460ff1615159181019190915290565b6040516102569190815181526020808301516001600160a01b0316908201526040808301519082015260609182015115159181019190915260800190565b3480156107b157600080fd5b50610322600c5481565b3480156107c757600080fd5b5061024a6107d6366004613a80565b6126d1565b3480156107e757600080fd5b506102d96107f636600461386e565b6126ff565b34801561080757600080fd5b506103226108163660046134e9565b60116020526000908152604090205481565b60006001600160e01b0319821663780e9d6360e01b148061084d575061084d8261273a565b92915050565b60606000805461086290613aaa565b80601f016020809104026020016040519081016040528092919081815260200182805461088e90613aaa565b80156108db5780601f106108b0576101008083540402835291602001916108db565b820191906000526020600020905b8154815290600101906020018083116108be57829003601f168201915b5050505050905090565b60006108f08261278a565b506000828152600460205260409020546001600160a01b031661084d565b6109198282336127c3565b5050565b600e602052600090815260409020805460018201805491929161093f90613aaa565b80601f016020809104026020016040519081016040528092919081815260200182805461096b90613aaa565b80156109b85780601f1061098d576101008083540402835291602001916109b8565b820191906000526020600020905b81548152906001019060200180831161099b57829003601f168201915b5050505050908060020180546109cd90613aaa565b80601f01602080910402602001604051908101604052809291908181526020018280546109f990613aaa565b8015610a465780601f10610a1b57610100808354040283529160200191610a46565b820191906000526020600020905b815481529060010190602001808311610a2957829003601f168201915b505050506003830154600484015460058501546006860154600787015460088801805497989597949650929491936001600160a01b03821693600160a01b90920460ff16929190610a9690613aaa565b80601f0160208091040260200160405190810160405280929190818152602001828054610ac290613aaa565b8015610b0f5780601f10610ae457610100808354040283529160200191610b0f565b820191906000526020600020905b815481529060010190602001808311610af257829003601f168201915b505050505090508a565b6001600160a01b038216610b4857604051633250574960e11b8152600060048201526024015b60405180910390fd5b6000610b558383336127d0565b9050836001600160a01b0316816001600160a01b031614610ba3576040516364283d7b60e01b81526001600160a01b0380861660048301526024820184905282166044820152606401610b3f565b50505050565b6000610bb483611aac565b8210610be55760405163295f44f760e21b81526001600160a01b038416600482015260248101839052604401610b3f565b506001600160a01b03919091166000908152600660209081526040808320938352929052205490565b600081815260106020526040902060018101546001600160a01b03163314610c715760405162461bcd60e51b81526020600482015260166024820152752cb7ba9030b932903737ba103a34329039b2b63632b960511b6044820152606401610b3f565b600381015460ff16610cbd5760405162461bcd60e51b81526020600482015260156024820152744c697374696e67206973206e6f742061637469766560581b6044820152606401610b3f565b60038101805460ff19169055604051339083907f76c5d8a17d0bee8bd0e004133353cd78ede70ac9ace2aa18bf839e748caff29090600090a35050565b33610d04836113e8565b6001600160a01b031614610d565760405162461bcd60e51b8152602060048201526019602482015278165bdd48191bdb89dd081bdddb881d1a1a5cc81d1a58dad95d603a1b6044820152606401610b3f565b60008111610da65760405162461bcd60e51b815260206004820152601c60248201527f5072696365206d7573742062652067726561746572207468616e2030000000006044820152606401610b3f565b60008281526010602052604090206003015460ff1615610e085760405162461bcd60e51b815260206004820152601860248201527f5469636b657420697320616c7265616479206c697374656400000000000000006044820152606401610b3f565b600082815260116020908152604080832054808452600e909252909120600301544210610e835760405162461bcd60e51b815260206004820152602360248201527f43616e6e6f742073656c6c207469636b65747320666f722070617374206576656044820152626e747360e81b6064820152608401610b3f565b6040805160808101825284815233602080830182815283850187815260016060860181815260008b81526010865288902096518755925190860180546001600160a01b0319166001600160a01b03909216919091179055516002850155516003909301805460ff191693151593909317909255915184815285917f22968ec3be3687b180f3544163a034b88d57b48159d9a7e9a1b610fdb2d05f8091015b60405180910390a3505050565b33610f38836113e8565b6001600160a01b031614610f8a5760405162461bcd60e51b8152602060048201526019602482015278165bdd48191bdb89dd081bdddb881d1a1a5cc81d1a58dad95d603a1b6044820152606401610b3f565b6000815111610fdb5760405162461bcd60e51b815260206004820152601c60248201527f4d65746164617461205552492063616e6e6f7420626520656d707479000000006044820152606401610b3f565b6000828152600f60205260409020600301610ff68282613b2c565b505050565b610ff683838360405180602001604052806000815250611f87565b600061102160085490565b821061104a5760405163295f44f760e21b81526000600482015260248101839052604401610b3f565b6008828154811061105d5761105d613bec565b90600052602060002001549050919050565b611077612851565b6000818152601060205260409020600381015460ff166110d95760405162461bcd60e51b815260206004820152601d60248201527f5469636b6574206973206e6f74206c697374656420666f722073616c650000006044820152606401610b3f565b80600201543410156111245760405162461bcd60e51b8152602060048201526014602482015273125b9cdd59999a58da595b9d081c185e5b595b9d60621b6044820152606401610b3f565b60018101546001600160a01b031661113b836113e8565b6001600160a01b0316146111915760405162461bcd60e51b815260206004820181905260248201527f53656c6c6572206e6f206c6f6e676572206f776e7320746865207469636b65746044820152606401610b3f565b600082815260116020908152604080832054808452600e90925290912060030154421061120b5760405162461bcd60e51b815260206004820152602260248201527f43616e6e6f7420627579207469636b65747320666f722070617374206576656e604482015261747360f01b6064820152608401610b3f565b6001820154600283015460038401805460ff191690556001600160a01b039091169061123882338761287b565b6000826001600160a01b03163460405160006040518083038185875af1925050503d8060008114611285576040519150601f19603f3d011682016040523d82523d6000602084013e61128a565b606091505b50509050806112d55760405162461bcd60e51b815260206004820152601760248201527614185e5b595b9d081d1c985b9cd9995c8819985a5b1959604a1b6044820152606401610b3f565b336001600160a01b0316836001600160a01b0316877f2bbc64d6afd28a753f6c5e4aaa894f1d684c44a0e080167eae104ac8505cfebd8560405161131b91815260200190565b60405180910390a450505050506113326001600b55565b50565b600f6020526000908152604090208054600182015460028301546003840180549394929391929161136590613aaa565b80601f016020809104026020016040519081016040528092919081815260200182805461139190613aaa565b80156113de5780601f106113b3576101008083540402835291602001916113de565b820191906000526020600020905b8154815290600101906020018083116113c157829003601f168201915b5050505050905084565b600061084d8261278a565b6060600061140083611aac565b905060008167ffffffffffffffff81111561141d5761141d613624565b604051908082528060200260200182016040528015611446578160200160208202803683370190505b5090506000805b838110156114b95760006114618783610ba9565b6000818152601160205260409020549091508890036114a6578084848151811061148d5761148d613bec565b6020908102919091010152826114a281613c18565b9350505b50806114b181613c18565b91505061144d565b5060008167ffffffffffffffff8111156114d5576114d5613624565b6040519080825280602002602001820160405280156114fe578160200160208202803683370190505b50905060005b828110156115555783818151811061151e5761151e613bec565b602002602001015182828151811061153857611538613bec565b60209081029190910101528061154d81613c18565b915050611504565b509695505050505050565b600061156a612851565b6000828152600e602052604090206007810154600160a01b900460ff166115c95760405162461bcd60e51b81526020600482015260136024820152724576656e74206973206e6f742061637469766560681b6044820152606401610b3f565b80600501548160060154106116145760405162461bcd60e51b8152602060048201526011602482015270115d995b9d081a5cc81cdbdb19081bdd5d607a1b6044820152606401610b3f565b806004015434101561165f5760405162461bcd60e51b8152602060048201526014602482015273125b9cdd59999a58da595b9d081c185e5b595b9d60621b6044820152606401610b3f565b806003015442106116b25760405162461bcd60e51b815260206004820152601860248201527f4576656e742068617320616c72656164792070617373656400000000000000006044820152606401610b3f565b600d80549060006116c283613c18565b9091555050600d5460068201546000906116dd906001613c31565b60068401805491925060006116f183613c18565b909155505060408051608081018252838152602080820188815282840185815284518084018652600080825260608601918252888152600f90945294909220835181559051600182015590516002820155915190919060038201906117569082613b2c565b5050506000828152601160205260409020859055611774338361292b565b60078301546040516000916001600160a01b03169034908381818185875af1925050503d80600081146117c3576040519150601f19603f3d011682016040523d82523d6000602084013e6117c8565b606091505b50509050806118135760405162461bcd60e51b815260206004820152601760248201527614185e5b595b9d081d1c985b9cd9995c8819985a5b1959604a1b6044820152606401610b3f565b336001600160a01b031686847f4fe0f5bb11eb6ab81c428fb83261719e5b22f84b3e1942cd491c3777504bb8518560405161185091815260200190565b60405180910390a45090925050506118686001600b55565b919050565b6118756133ee565b600e600083815260200190815260200160002060405180610140016040529081600082015481526020016001820180546118ae90613aaa565b80601f01602080910402602001604051908101604052809291908181526020018280546118da90613aaa565b80156119275780601f106118fc57610100808354040283529160200191611927565b820191906000526020600020905b81548152906001019060200180831161190a57829003601f168201915b5050505050815260200160028201805461194090613aaa565b80601f016020809104026020016040519081016040528092919081815260200182805461196c90613aaa565b80156119b95780601f1061198e576101008083540402835291602001916119b9565b820191906000526020600020905b81548152906001019060200180831161199c57829003601f168201915b50505091835250506003820154602082015260048201546040820152600582015460608201526006820154608082015260078201546001600160a01b03811660a0830152600160a01b900460ff16151560c082015260088201805460e090920191611a2390613aaa565b80601f0160208091040260200160405190810160405280929190818152602001828054611a4f90613aaa565b8015611a9c5780601f10611a7157610100808354040283529160200191611a9c565b820191906000526020600020905b815481529060010190602001808311611a7f57829003601f168201915b5050505050815250509050919050565b60006001600160a01b038216611ad8576040516322718ad960e21b815260006004820152602401610b3f565b506001600160a01b031660009081526003602052604090205490565b611afc612945565b611b066000612972565b565b611b336040518060800160405280600081526020016000815260200160008152602001606081525090565b600f6000838152602001908152602001600020604051806080016040529081600082015481526020016001820154815260200160028201548152602001600382018054611a2390613aaa565b6060600060015b600d548111611bc95760008181526010602052604090206003015460ff1615611bb75781611bb381613c18565b9250505b80611bc181613c18565b915050611b86565b5060008167ffffffffffffffff811115611be557611be5613624565b604051908082528060200260200182016040528015611c0e578160200160208202803683370190505b509050600060015b600d548111611c775760008181526010602052604090206003015460ff1615611c655780838381518110611c4c57611c4c613bec565b602090810291909101015281611c6181613c18565b9250505b80611c6f81613c18565b915050611c16565b50909392505050565b6000428511611cd15760405162461bcd60e51b815260206004820181905260248201527f4576656e742064617465206d75737420626520696e20746865206675747572656044820152606401610b3f565b60008411611d2d5760405162461bcd60e51b815260206004820152602360248201527f5469636b6574207072696365206d75737420626520677265617465722074686160448201526206e20360ec1b6064820152608401610b3f565b60008311611d875760405162461bcd60e51b815260206004820152602160248201527f4d617820737570706c79206d7573742062652067726561746572207468616e206044820152600360fc1b6064820152608401610b3f565b6000875111611dd85760405162461bcd60e51b815260206004820152601a60248201527f4576656e74206e616d652063616e6e6f7420626520656d7074790000000000006044820152606401610b3f565b600c8054906000611de883613c18565b9091555050600c54604080516101408101825282815260208082018b81528284018b9052606083018a90526080830189905260a08301889052600060c084018190523360e0850152600161010085018190526101208501899052868252600e9093529390932082518155925191929190820190611e659082613b2c565b5060408201516002820190611e7a9082613b2c565b50606082015160038201556080820151600482015560a0820151600582015560c0820151600682015560e08201516007820180546101008501511515600160a01b026001600160a81b03199091166001600160a01b03909316929092179190911790556101208201516008820190611ef29082613b2c565b50905050336001600160a01b0316817f81f945738beff591c3eab232e9f3265ce3f12263a2ec7acf84db8dc0fce26a278a8888604051611f3493929190613c44565b60405180910390a3979650505050505050565b611f4f612945565b6000908152600e60205260409020600701805460ff60a01b19169055565b60606001805461086290613aaa565b6109193383836129c4565b611f92848484610b19565b610ba384848484612a5b565b60606000600c5467ffffffffffffffff811115611fbd57611fbd613624565b604051908082528060200260200182016040528015611ff657816020015b611fe36133ee565b815260200190600190039081611fdb5790505b50905060015b600c54811161227157600e6000828152602001908152602001600020604051806101400160405290816000820154815260200160018201805461203e90613aaa565b80601f016020809104026020016040519081016040528092919081815260200182805461206a90613aaa565b80156120b75780601f1061208c576101008083540402835291602001916120b7565b820191906000526020600020905b81548152906001019060200180831161209a57829003601f168201915b505050505081526020016002820180546120d090613aaa565b80601f01602080910402602001604051908101604052809291908181526020018280546120fc90613aaa565b80156121495780601f1061211e57610100808354040283529160200191612149565b820191906000526020600020905b81548152906001019060200180831161212c57829003601f168201915b50505091835250506003820154602082015260048201546040820152600582015460608201526006820154608082015260078201546001600160a01b03811660a0830152600160a01b900460ff16151560c082015260088201805460e0909201916121b390613aaa565b80601f01602080910402602001604051908101604052809291908181526020018280546121df90613aaa565b801561222c5780601f106122015761010080835404028352916020019161222c565b820191906000526020600020905b81548152906001019060200180831161220f57829003601f168201915b505050505081525050826001836122439190613c69565b8151811061225357612253613bec565b6020026020010181905250808061226990613c18565b915050611ffc565b50919050565b60606122828261278a565b506000828152600f60205260408120600301805461229f90613aaa565b80601f01602080910402602001604051908101604052809291908181526020018280546122cb90613aaa565b80156123185780601f106122ed57610100808354040283529160200191612318565b820191906000526020600020905b8154815290600101906020018083116122fb57829003601f168201915b50505050509050600081511115612351578060405160200161233a9190613c98565b604051602081830303815290604052915050919050565b6000600f600085815260200190815260200160002060405180608001604052908160008201548152602001600182015481526020016002820154815260200160038201805461239f90613aaa565b80601f01602080910402602001604051908101604052809291908181526020018280546123cb90613aaa565b80156124185780601f106123ed57610100808354040283529160200191612418565b820191906000526020600020905b8154815290600101906020018083116123fb57829003601f168201915b50505050508152505090506000600e600083602001518152602001908152602001600020604051806101400160405290816000820154815260200160018201805461246290613aaa565b80601f016020809104026020016040519081016040528092919081815260200182805461248e90613aaa565b80156124db5780601f106124b0576101008083540402835291602001916124db565b820191906000526020600020905b8154815290600101906020018083116124be57829003601f168201915b505050505081526020016002820180546124f490613aaa565b80601f016020809104026020016040519081016040528092919081815260200182805461252090613aaa565b801561256d5780601f106125425761010080835404028352916020019161256d565b820191906000526020600020905b81548152906001019060200180831161255057829003601f168201915b50505091835250506003820154602082015260048201546040820152600582015460608201526006820154608082015260078201546001600160a01b03811660a0830152600160a01b900460ff16151560c082015260088201805460e0909201916125d790613aaa565b80601f016020809104026020016040519081016040528092919081815260200182805461260390613aaa565b80156126505780601f1061262557610100808354040283529160200191612650565b820191906000526020600020905b81548152906001019060200180831161263357829003601f168201915b50505050508152505090506000816020015161266f8460400151612b84565b836040015184610120015160405160200161268d9493929190613cc7565b60405160208183030381529060405290506126a781612c17565b6040516020016126b79190613dad565b604051602081830303815290604052945050505050919050565b6001600160a01b03918216600090815260056020908152604080832093909416825291909152205460ff1690565b612707612945565b6001600160a01b03811661273157604051631e4fbdf760e01b815260006004820152602401610b3f565b61133281612972565b60006001600160e01b031982166380ac58cd60e01b148061276b57506001600160e01b03198216635b5e139f60e01b145b8061084d57506301ffc9a760e01b6001600160e01b031983161461084d565b6000818152600260205260408120546001600160a01b03168061084d57604051637e27328960e01b815260048101849052602401610b3f565b610ff68383836001612d77565b60008281526010602052604081206003015460ff161561283e5760008381526010602052604080822060038101805460ff191690556001015490516001600160a01b039091169185917f76c5d8a17d0bee8bd0e004133353cd78ede70ac9ace2aa18bf839e748caff2909190a35b612849848484612e7d565b949350505050565b6002600b540361287457604051633ee5aeb560e01b815260040160405180910390fd5b6002600b55565b6001600160a01b0382166128a557604051633250574960e11b815260006004820152602401610b3f565b60006128b3838360006127d0565b90506001600160a01b0381166128df57604051637e27328960e01b815260048101839052602401610b3f565b836001600160a01b0316816001600160a01b031614610ba3576040516364283d7b60e01b81526001600160a01b0380861660048301526024820184905282166044820152606401610b3f565b610919828260405180602001604052806000815250612f4a565b600a546001600160a01b03163314611b065760405163118cdaa760e01b8152336004820152602401610b3f565b600a80546001600160a01b038381166001600160a01b0319831681179093556040519116919082907f8be0079c531659141344cd1fd0a4f28419497f9722a3daafe3b4186f6b6457e090600090a35050565b6001600160a01b0382166129f657604051630b61174360e31b81526001600160a01b0383166004820152602401610b3f565b6001600160a01b03838116600081815260056020908152604080832094871680845294825291829020805460ff191686151590811790915591519182527f17307eab39ab6107e8899845ad3d59bd9653f200f220920489ca2b5937696c319101610f21565b6001600160a01b0383163b15610ba357604051630a85bd0160e11b81526001600160a01b0384169063150b7a0290612a9d903390889087908790600401613df2565b6020604051808303816000875af1925050508015612ad8575060408051601f3d908101601f19168201909252612ad591810190613e25565b60015b612b41573d808015612b06576040519150601f19603f3d011682016040523d82523d6000602084013e612b0b565b606091505b508051600003612b3957604051633250574960e11b81526001600160a01b0385166004820152602401610b3f565b805181602001fd5b6001600160e01b03198116630a85bd0160e11b14612b7d57604051633250574960e11b81526001600160a01b0385166004820152602401610b3f565b5050505050565b60606000612b9183612f61565b600101905060008167ffffffffffffffff811115612bb157612bb1613624565b6040519080825280601f01601f191660200182016040528015612bdb576020820181803683370190505b5090508181016020015b600019016f181899199a1a9b1b9c1cb0b131b232b360811b600a86061a8153600a8504945084612be557509392505050565b60608151600003612c3657505060408051602081019091526000815290565b6000604051806060016040528060408152602001613e926040913990506000600384516002612c659190613c31565b612c6f9190613e42565b612c7a906004613e64565b67ffffffffffffffff811115612c9257612c92613624565b6040519080825280601f01601f191660200182016040528015612cbc576020820181803683370190505b50905060018201602082018586518701602081018051600082525b82841015612d32576003840193508351603f8160121c168701518653600186019550603f81600c1c168701518653600186019550603f8160061c168701518653600186019550603f8116870151865350600185019450612cd7565b9052505085516003900660018114612d515760028114612d6457612d6c565b603d6001830353603d6002830353612d6c565b603d60018303535b509195945050505050565b8080612d8b57506001600160a01b03821615155b15612e4d576000612d9b8461278a565b90506001600160a01b03831615801590612dc75750826001600160a01b0316816001600160a01b031614155b8015612dda5750612dd881846126d1565b155b15612e035760405163a9fbf51f60e01b81526001600160a01b0384166004820152602401610b3f565b8115612e4b5783856001600160a01b0316826001600160a01b03167f8c5be1e5ebec7d5bd14f71427d1e84f3dd0314c0f7b2291e5b200ac8c7c3b92560405160405180910390a45b505b5050600090815260046020526040902080546001600160a01b0319166001600160a01b0392909216919091179055565b600080612e8b858585613039565b90506001600160a01b038116612ee857612ee384600880546000838152600960205260408120829055600182018355919091527ff3f7a9fe364faab93b216da50a3214154f22a0a2b415b23a84c8169e8b636ee30155565b612f0b565b846001600160a01b0316816001600160a01b031614612f0b57612f0b8185613132565b6001600160a01b038516612f2757612f22846131c3565b612849565b846001600160a01b0316816001600160a01b031614612849576128498585613272565b612f5483836132c2565b610ff66000848484612a5b565b60008072184f03e93ff9f4daa797ed6e38ed64bf6a1f0160401b8310612fa05772184f03e93ff9f4daa797ed6e38ed64bf6a1f0160401b830492506040015b6d04ee2d6d415b85acef81000000008310612fcc576d04ee2d6d415b85acef8100000000830492506020015b662386f26fc100008310612fea57662386f26fc10000830492506010015b6305f5e1008310613002576305f5e100830492506008015b612710831061301657612710830492506004015b60648310613028576064830492506002015b600a831061084d5760010192915050565b6000828152600260205260408120546001600160a01b039081169083161561306657613066818486613327565b6001600160a01b038116156130a457613083600085600080612d77565b6001600160a01b038116600090815260036020526040902080546000190190555b6001600160a01b038516156130d3576001600160a01b0385166000908152600360205260409020805460010190555b60008481526002602052604080822080546001600160a01b0319166001600160a01b0389811691821790925591518793918516917fddf252ad1be2c89b69c2b068fc378daa952ba7f163c4a11628f55a4df523b3ef91a4949350505050565b600061313d83611aac565b600083815260076020526040902054909150808214613190576001600160a01b03841660009081526006602090815260408083208584528252808320548484528184208190558352600790915290208190555b5060009182526007602090815260408084208490556001600160a01b039094168352600681528383209183525290812055565b6008546000906131d590600190613c69565b600083815260096020526040812054600880549394509092849081106131fd576131fd613bec565b90600052602060002001549050806008838154811061321e5761321e613bec565b600091825260208083209091019290925582815260099091526040808220849055858252812055600880548061325657613256613e7b565b6001900381819060005260206000200160009055905550505050565b6000600161327f84611aac565b6132899190613c69565b6001600160a01b039093166000908152600660209081526040808320868452825280832085905593825260079052919091209190915550565b6001600160a01b0382166132ec57604051633250574960e11b815260006004820152602401610b3f565b60006132fa838360006127d0565b90506001600160a01b03811615610ff6576040516339e3563760e11b815260006004820152602401610b3f565b61333283838361338b565b610ff6576001600160a01b03831661336057604051637e27328960e01b815260048101829052602401610b3f565b60405163177e802f60e01b81526001600160a01b038316600482015260248101829052604401610b3f565b60006001600160a01b038316158015906128495750826001600160a01b0316846001600160a01b031614806133c557506133c584846126d1565b806128495750506000908152600460205260409020546001600160a01b03908116911614919050565b6040518061014001604052806000815260200160608152602001606081526020016000815260200160008152602001600081526020016000815260200160006001600160a01b03168152602001600015158152602001606081525090565b6001600160e01b03198116811461133257600080fd5b60006020828403121561347457600080fd5b813561347f8161344c565b9392505050565b60005b838110156134a1578181015183820152602001613489565b50506000910152565b600081518084526134c2816020860160208601613486565b601f01601f19169290920160200192915050565b60208152600061347f60208301846134aa565b6000602082840312156134fb57600080fd5b5035919050565b80356001600160a01b038116811461186857600080fd5b6000806040838503121561352c57600080fd5b61353583613502565b946020939093013593505050565b60006101408c835280602084015261355d8184018d6134aa565b90508281036040840152613571818c6134aa565b90508960608401528860808401528760a08401528660c084015260018060a01b03861660e08401528415156101008401528281036101208401526135b581856134aa565b9d9c50505050505050505050505050565b6000806000606084860312156135db57600080fd5b6135e484613502565b92506135f260208501613502565b9150604084013590509250925092565b6000806040838503121561361557600080fd5b50508035926020909101359150565b634e487b7160e01b600052604160045260246000fd5b600067ffffffffffffffff8084111561365557613655613624565b604051601f8501601f19908116603f0116810190828211818310171561367d5761367d613624565b8160405280935085815286868601111561369657600080fd5b858560208301376000602087830101525050509392505050565b600082601f8301126136c157600080fd5b61347f8383356020850161363a565b600080604083850312156136e357600080fd5b82359150602083013567ffffffffffffffff81111561370157600080fd5b61370d858286016136b0565b9150509250929050565b84815283602082015282604082015260806060820152600061373c60808301846134aa565b9695505050505050565b6000806040838503121561375957600080fd5b8235915061376960208401613502565b90509250929050565b6020808252825182820181905260009190848201906040850190845b818110156137aa5783518352928401929184019160010161378e565b50909695505050505050565b60006101408251845260208301518160208601526137d6828601826134aa565b915050604083015184820360408601526137f082826134aa565b915050606083015160608501526080830151608085015260a083015160a085015260c083015160c085015260e083015161383560e08601826001600160a01b03169052565b5061010083810151151590850152610120808401518583038287015261373c83826134aa565b60208152600061347f60208301846137b6565b60006020828403121561388057600080fd5b61347f82613502565b602081528151602082015260208201516040820152604082015160608201526000606083015160808084015261284960a08401826134aa565b60008060008060008060c087890312156138db57600080fd5b863567ffffffffffffffff808211156138f357600080fd5b6138ff8a838b016136b0565b9750602089013591508082111561391557600080fd5b6139218a838b016136b0565b965060408901359550606089013594506080890135935060a089013591508082111561394c57600080fd5b5061395989828a016136b0565b9150509295509295509295565b6000806040838503121561397957600080fd5b61398283613502565b91506020830135801515811461399757600080fd5b809150509250929050565b600080600080608085870312156139b857600080fd5b6139c185613502565b93506139cf60208601613502565b925060408501359150606085013567ffffffffffffffff8111156139f257600080fd5b8501601f81018713613a0357600080fd5b613a128782356020840161363a565b91505092959194509250565b6000602080830181845280855180835260408601915060408160051b870101925083870160005b82811015613a7357603f19888603018452613a618583516137b6565b94509285019290850190600101613a45565b5092979650505050505050565b60008060408385031215613a9357600080fd5b613a9c83613502565b915061376960208401613502565b600181811c90821680613abe57607f821691505b60208210810361227157634e487b7160e01b600052602260045260246000fd5b601f821115610ff657600081815260208120601f850160051c81016020861015613b055750805b601f850160051c820191505b81811015613b2457828155600101613b11565b505050505050565b815167ffffffffffffffff811115613b4657613b46613624565b613b5a81613b548454613aaa565b84613ade565b602080601f831160018114613b8f5760008415613b775750858301515b600019600386901b1c1916600185901b178555613b24565b600085815260208120601f198616915b82811015613bbe57888601518255948401946001909101908401613b9f565b5085821015613bdc5787850151600019600388901b60f8161c191681555b5050505050600190811b01905550565b634e487b7160e01b600052603260045260246000fd5b634e487b7160e01b600052601160045260246000fd5b600060018201613c2a57613c2a613c02565b5060010190565b8082018082111561084d5761084d613c02565b606081526000613c5760608301866134aa565b60208301949094525060400152919050565b8181038181111561084d5761084d613c02565b60008151613c8e818560208601613486565b9290920192915050565b66697066733a2f2f60c81b815260008251613cba816007850160208701613486565b9190910160070192915050565b607b60f81b815267113730b6b2911d1160c11b60018201528451600090613cf5816009850160208a01613486565b61202360f01b6009918401918201528551613d1781600b840160208a01613486565b61088b60f21b600b929091019182018190526e113232b9b1b934b83a34b7b7111d1160891b600d8301528551613d5481601c850160208a01613486565b601c9201918201526f22696d616765223a22697066733a2f2f60801b601e820152613da2613d95613d88602e840187613c7c565b601160f91b815260010190565b607d60f81b815260010190565b979650505050505050565b7f646174613a6170706c69636174696f6e2f6a736f6e3b6261736536342c000000815260008251613de581601d850160208701613486565b91909101601d0192915050565b6001600160a01b038581168252841660208201526040810183905260806060820181905260009061373c908301846134aa565b600060208284031215613e3757600080fd5b815161347f8161344c565b600082613e5f57634e487b7160e01b600052601260045260246000fd5b500490565b808202811582820484141761084d5761084d613c02565b634e487b7160e01b600052603160045260246000fdfe4142434445464748494a4b4c4d4e4f505152535455565758595a6162636465666768696a6b6c6d6e6f707172737475767778797a303132333435363738392b2fa264697066735822122024aed8dc9b73883b97747ad84b4d9df09649fbcdcff59d41ef98ceb1f708ddc164736f6c63430008140033",
  "devdoc": {
    "details": "NFT-based event ticketing system with marketplace functionality",
    "errors": {
      "ERC721EnumerableForbiddenBatchMint()": [
        {
          "details": "Batch mint is not allowed."
        }
      ],
      "ERC721IncorrectOwner(address,uint256,address)": [
        {
          "details": "Indicates an error related to the ownership over a particular token. Used in transfers.",
          "params": {
            "owner": "Address of the current owner of a token.",
            "sender": "Address whose tokens are being transferred.",
            "tokenId": "Identifier number of a token."
          }
        }
      ],
      "ERC721InsufficientApproval(address,uint256)": [
        {
          "details": "Indicates a failure with the `operator`s approval. Used in transfers.",
          "params": {
            "operator": "Address that may be allowed to operate on tokens without being their owner.",
            "tokenId": "Identifier number of a token."
          }
        }
      ],
      "ERC721InvalidApprover(address)": [
        {
          "details": "Indicates a failure with the `approver` of a token to be approved. Used in approvals.",
          "params": {
            "approver": "Address initiating an approval operation."
          }
        }
      ],
      "ERC721InvalidOperator(address)": [
        {
          "details": "Indicates a failure with the `operator` to be approved. Used in approvals.",
          "params": {
            "operator": "Address that may be allowed to operate on tokens without being their owner."
          }
        }
      ],
      "ERC721InvalidOwner(address)": [
        {
          "details": "Indicates that an address can't be an owner. For example, `address(0)` is a forbidden owner in EIP-20. Used in balance queries.",
          "params": {
            "owner": "Address of the current owner of a token."
          }
        }
      ],
      "ERC721InvalidReceiver(address)": [
        {
          "details": "Indicates a failure with the token `receiver`. Used in transfers.",
          "params": {
            "receiver": "Address to which tokens are being transferred."
          }
        }
      ],
      "ERC721InvalidSender(address)": [
        {
          "details": "Indicates a failure with the token `sender`. Used in transfers.",
          "params": {
            "sender": "Address whose tokens are being transferred."
          }
        }
      ],
      "ERC721NonexistentToken(uint256)": [
        {
          "details": "Indicates a `tokenId` whose `owner` is the zero address.",
          "params": {
            "tokenId": "Identifier number of a token."
          }
        }
      ],
      "ERC721OutOfBoundsIndex(address,uint256)": [
        {
          "details": "An `owner`'s token query was out of bounds for `index`. NOTE: The owner being `address(0)` indicates a global out of bounds index."
        }
      ],
      "OwnableInvalidOwner(address)": [
        {
          "details": "The owner is not a valid owner account. (eg. `address(0)`)"
        }
      ],
      "OwnableUnauthorizedAccount(address)": [
        {
          "details": "The caller account is not authorized to perform an operation."
        }
      ],
      "ReentrancyGuardReentrantCall()": [
        {
          "details": "Unauthorized reentrant call."
        }
      ]
    },
    "events": {
      "Approval(address,address,uint256)": {
        "details": "Emitted when `owner` enables `approved` to manage the `tokenId` token."
      },
      "ApprovalForAll(address,address,bool)": {
        "details": "Emitted when `owner` enables or disables (`approved`) `operator` to manage all of its assets."
      },
      "Transfer(address,address,uint256)": {
        "details": "Emitted when `tokenId` token is transferred from `from` to `to`."
      }
    },
    "kind": "dev",
    "methods": {
      "approve(address,uint256)": {
        "details": "See {IERC721-approve}."
      },
      "balanceOf(address)": {
        "details": "See {IERC721-balanceOf}."
      },
      "buyListedTicket(uint256)": {
        "details": "Buy a ticket from the marketplace"
      },
      "buyTicket(uint256)": {
        "details": "Purchase a ticket for an event"
      },
      "cancelListing(uint256)": {
        "details": "Cancel a marketplace listing"
      },
      "createEvent(string,string,uint256,uint256,uint256,string)": {
        "details": "Create a new event"
      },
      "deactivateEvent(uint256)": {
        "details": "Emergency function to deactivate an event (only owner)"
      },
      "getActiveListings()": {
        "details": "Get active marketplace listings"
      },
      "getAllEvents()": {
        "details": "Get all events (for frontend display)"
      },
      "getApproved(uint256)": {
        "details": "See {IERC721-getApproved}."
      },
      "getEvent(uint256)": {
        "details": "Get event details"
      },
      "getMarketplaceListing(uint256)": {
        "details": "Get marketplace listing details"
      },
      "getTicket(uint256)": {
        "details": "Get ticket details"
      },
      "getTicketsByEventAndOwner(uint256,address)": {
        "details": "Get tickets owned by an address for a specific event"
      },
      "isApprovedForAll(address,address)": {
        "details": "See {IERC721-isApprovedForAll}."
      },
      "listTicket(uint256,uint256)": {
        "details": "List a ticket for resale on the marketplace"
      },
      "name()": {
        "details": "See {IERC721Metadata-name}."
      },
      "owner()": {
        "details": "Returns the address of the current owner."
      },
      "ownerOf(uint256)": {
        "details": "See {IERC721-ownerOf}."
      },
      "renounceOwnership()": {
        "details": "Leaves the contract without owner. It will not be possible to call `onlyOwner` functions. Can only be called by the current owner. NOTE: Renouncing ownership will leave the contract without an owner, thereby disabling any functionality that is only available to the owner."
      },
      "safeTransferFrom(address,address,uint256)": {
        "details": "See {IERC721-safeTransferFrom}."
      },
      "safeTransferFrom(address,address,uint256,bytes)": {
        "details": "See {IERC721-safeTransferFrom}."
      },
      "setApprovalForAll(address,bool)": {
        "details": "See {IERC721-setApprovalForAll}."
      },
      "supportsInterface(bytes4)": {
        "details": "See {IERC165-supportsInterface}."
      },
      "symbol()": {
        "details": "See {IERC721Metadata-symbol}."
      },
      "tokenByIndex(uint256)": {
        "details": "See {IERC721Enumerable-tokenByIndex}."
      },
      "tokenOfOwnerByIndex(address,uint256)": {
        "details": "See {IERC721Enumerable-tokenOfOwnerByIndex}."
      },
      "tokenURI(uint256)": {
        "details": "Override tokenURI to return ticket metadata"
      },
      "totalSupply()": {
        "details": "See {IERC721Enumerable-totalSupply}."
      },
      "transferFrom(address,address,uint256)": {
        "details": "See {IERC721-transferFrom}."
      },
      "transferOwnership(address)": {
        "details": "Transfers ownership of the contract to a new account (`newOwner`). Can only be called by the current owner."
      },
      "updateTicketMetadata(uint256,string)": {
        "details": "Update ticket metadata URI after IPFS upload"
      }
    },
    "title": "EventTicketNFT",
    "version": 1
  },
  "userdoc": {
    "kind": "user",
    "methods": {},
    "version": 1
  },
  "storageLayout": {
    "storage": [
      {
        "astId": 317,
        "contract": "contracts/EventTicketNFT.sol:EventTicketNFT",
        "label": "_name",
        "offset": 0,
        "slot": "0",
        "type": "t_string_storage"
      },
      {
        "astId": 319,
        "contract": "contracts/EventTicketNFT.sol:EventTicketNFT",
        "label": "_symbol",
        "offset": 0,
        "slot": "1",
        "type": "t_string_storage"
      },
      {
        "astId": 323,
        "contract": "contracts/EventTicketNFT.sol:EventTicketNFT",
        "label": "_owners",
        "offset": 0,
        "slot": "2",
        "type": "t_mapping(t_uint256,t_address)"
      },
      {
        "astId": 327,
        "contract": "contracts/EventTicketNFT.sol:EventTicketNFT",
        "label": "_balances",
        "offset": 0,
        "slot": "3",
        "type": "t_mapping(t_address,t_uint256)"
      },
      {
        "astId": 331,
        "contract": "contracts/EventTicketNFT.sol:EventTicketNFT",
        "label": "_tokenApprovals",
        "offset": 0,
        "slot": "4",
        "type": "t_mapping(t_uint256,t_address)"
      },
      {
        "astId": 337,
        "contract": "contracts/EventTicketNFT.sol:EventTicketNFT",
        "label": "_operatorApprovals",
        "offset": 0,
        "slot": "5",
        "type": "t_mapping(t_address,t_mapping(t_address,t_bool))"
      },
      {
        "astId": 1447,
        "contract": "contracts/EventTicketNFT.sol:EventTicketNFT",
        "label": "_ownedTokens",
        "offset": 0,
        "slot": "6",
        "type": "t_mapping(t_address,t_mapping(t_uint256,t_uint256))"
      },
      {
        "astId": 1451,
        "contract": "contracts/EventTicketNFT.sol:EventTicketNFT",
        "label": "_ownedTokensIndex",
        "offset": 0,
        "slot": "7",
        "type": "t_mapping(t_uint256,t_uint256)"
      },
      {
        "astId": 1454,
        "contract": "contracts/EventTicketNFT.sol:EventTicketNFT",
        "label": "_allTokens",
        "offset": 0,
        "slot": "8",
        "type": "t_array(t_uint256)dyn_storage"
      },
      {
        "astId": 1458,
        "contract": "contracts/EventTicketNFT.sol:EventTicketNFT",
        "label": "_allTokensIndex",
        "offset": 0,
        "slot": "9",
        "type": "t_mapping(t_uint256,t_uint256)"
      },
      {
        "astId": 8,
        "contract": "contracts/EventTicketNFT.sol:EventTicketNFT",
        "label": "_owner",
        "offset": 0,
        "slot": "10",
        "type": "t_address"
      },
      {
        "astId": 1960,
        "contract": "contracts/EventTicketNFT.sol:EventTicketNFT",
        "label": "_status",
        "offset": 0,
        "slot": "11",
        "type": "t_uint256"
      },
      {
        "astId": 3485,
        "contract": "contracts/EventTicketNFT.sol:EventTicketNFT",
        "label": "eventIdCounter",
        "offset": 0,
        "slot": "12",
        "type": "t_uint256"
      },
      {
        "astId": 3487,
        "contract": "contracts/EventTicketNFT.sol:EventTicketNFT",
        "label": "ticketIdCounter",
        "offset": 0,
        "slot": "13",
        "type": "t_uint256"
      },
      {
        "astId": 3531,
        "contract": "contracts/EventTicketNFT.sol:EventTicketNFT",
        "label": "events",
        "offset": 0,
        "slot": "14",
        "type": "t_mapping(t_uint256,t_struct(Event)3508_storage)"
      },
      {
        "astId": 3536,
        "contract": "contracts/EventTicketNFT.sol:EventTicketNFT",
        "label": "tickets",
        "offset": 0,
        "slot": "15",
        "type": "t_mapping(t_uint256,t_struct(Ticket)3517_storage)"
      },
      {
        "astId": 3541,
        "contract": "contracts/EventTicketNFT.sol:EventTicketNFT",
        "label": "marketplaceListings",
        "offset": 0,
        "slot": "16",
        "type": "t_mapping(t_uint256,t_struct(MarketplaceListing)3526_storage)"
      },
      {
        "astId": 3545,
        "contract": "contracts/EventTicketNFT.sol:EventTicketNFT",
        "label": "ticketToEvent",
        "offset": 0,
        "slot": "17",
        "type": "t_mapping(t_uint256,t_uint256)"
      }
    ],
    "types": {
      "t_address": {
        "encoding": "inplace",
        "label": "address",
        "numberOfBytes": "20"
      },
      "t_array(t_uint256)dyn_storage": {
        "base": "t_uint256",
        "encoding": "dynamic_array",
        "label": "uint256[]",
        "numberOfBytes": "32"
      },
      "t_bool": {
        "encoding": "inplace",
        "label": "bool",
        "numberOfBytes": "1"
      },
      "t_mapping(t_address,t_bool)": {
        "encoding": "mapping",
        "key": "t_address",
        "label": "mapping(address => bool)",
        "numberOfBytes": "32",
        "value": "t_bool"
      },
      "t_mapping(t_address,t_mapping(t_address,t_bool))": {
        "encoding": "mapping",
        "key": "t_address",
        "label": "mapping(address => mapping(address => bool))",
        "numberOfBytes": "32",
        "value": "t_mapping(t_address,t_bool)"
      },
      "t_mapping(t_address,t_mapping(t_uint256,t_uint256))": {
        "encoding": "mapping",
        "key": "t_address",
        "label": "mapping(address => mapping(uint256 => uint256))",
        "numberOfBytes": "32",
        "value": "t_mapping(t_uint256,t_uint256)"
      },
      "t_mapping(t_address,t_uint256)": {
        "encoding": "mapping",
        "key": "t_address",
        "label": "mapping(address => uint256)",
        "numberOfBytes": "32",
        "value": "t_uint256"
      },
      "t_mapping(t_uint256,t_address)": {
        "encoding": "mapping",
        "key": "t_uint256",
        "label": "mapping(uint256 => address)",
        "numberOfBytes": "32",
        "value": "t_address"
      },
      "t_mapping(t_uint256,t_struct(Event)3508_storage)": {
        "encoding": "mapping",
        "key": "t_uint256",
        "label": "mapping(uint256 => struct EventTicketNFT.Event)",
        "numberOfBytes": "32",
        "value": "t_struct(Event)3508_storage"
      },
      "t_mapping(t_uint256,t_struct(MarketplaceListing)3526_storage)": {
        "encoding": "mapping",
        "key": "t_uint256",
        "label": "mapping(uint256 => struct EventTicketNFT.MarketplaceListing)",
        "numberOfBytes": "32",
        "value": "t_struct(MarketplaceListing)3526_storage"
      },
      "t_mapping(t_uint256,t_struct(Ticket)3517_storage)": {
        "encoding": "mapping",
        "key": "t_uint256",
        "label": "mapping(uint256 => struct EventTicketNFT.Ticket)",
        "numberOfBytes": "32",
        "value": "t_struct(Ticket)3517_storage"
      },
      "t_mapping(t_uint256,t_uint256)": {
        "encoding": "mapping",
        "key": "t_uint256",
        "label": "mapping(uint256 => uint256)",
        "numberOfBytes": "32",
        "value": "t_uint256"
      },
      "t_string_storage": {
        "encoding": "bytes",
        "label": "string",
        "numberOfBytes": "32"
      },
      "t_struct(Event)3508_storage": {
        "encoding": "inplace",
        "label": "struct EventTicketNFT.Event",
        "members": [
          {
            "astId": 3489,
            "contract": "contracts/EventTicketNFT.sol:EventTicketNFT",
            "label": "id",
            "offset": 0,
            "slot": "0",
            "type": "t_uint256"
          },
          {
            "astId": 3491,
            "contract": "contracts/EventTicketNFT.sol:EventTicketNFT",
            "label": "name",
            "offset": 0,
            "slot": "1",
            "type": "t_string_storage"
          },
          {
            "astId": 3493,
            "contract": "contracts/EventTicketNFT.sol:EventTicketNFT",
            "label": "description",
            "offset": 0,
            "slot": "2",
            "type": "t_string_storage"
          },
          {
            "astId": 3495,
            "contract": "contracts/EventTicketNFT.sol:EventTicketNFT",
            "label": "eventDate",
            "offset": 0,
            "slot": "3",
            "type": "t_uint256"
          },
          {
            "astId": 3497,
            "contract": "contracts/EventTicketNFT.sol:EventTicketNFT",
            "label": "ticketPrice",
            "offset": 0,
            "slot": "4",
            "type": "t_uint256"
          },
          {
            "astId": 3499,
            "contract": "contracts/EventTicketNFT.sol:EventTicketNFT",
            "label": "maxSupply",
            "offset": 0,
            "slot": "5",
            "type": "t_uint256"
          },
          {
            "astId": 3501,
            "contract": "contracts/EventTicketNFT.sol:EventTicketNFT",
            "label": "soldTickets",
            "offset": 0,
            "slot": "6",
            "type": "t_uint256"
          },
          {
            "astId": 3503,
            "contract": "contracts/EventTicketNFT.sol:EventTicketNFT",
            "label": "organizer",
            "offset": 0,
            "slot": "7",
            "type": "t_address"
          },
          {
            "astId": 3505,
            "contract": "contracts/EventTicketNFT.sol:EventTicketNFT",
            "label": "isActive",
            "offset": 20,
            "slot": "7",
            "type": "t_bool"
          },
          {
            "astId": 3507,
            "contract": "contracts/EventTicketNFT.sol:EventTicketNFT",
            "label": "imageCID",
            "offset": 0,
            "slot": "8",
            "type": "t_string_storage"
          }
        ],
        "numberOfBytes": "288"
      },
      "t_struct(MarketplaceListing)3526_storage": {
        "encoding": "inplace",
        "label": "struct EventTicketNFT.MarketplaceListing",
        "members": [
          {
            "astId": 3519,
            "contract": "contracts/EventTicketNFT.sol:EventTicketNFT",
            "label": "ticketId",
            "offset": 0,
            "slot": "0",
            "type": "t_uint256"
          },
          {
            "astId": 3521,
            "contract": "contracts/EventTicketNFT.sol:EventTicketNFT",
            "label": "seller",
            "offset": 0,
            "slot": "1",
            "type": "t_address"
          },
          {
            "astId": 3523,
            "contract": "contracts/EventTicketNFT.sol:EventTicketNFT",
            "label": "price",
            "offset": 0,
            "slot": "2",
            "type": "t_uint256"
          },
          {
            "astId": 3525,
            "contract": "contracts/EventTicketNFT.sol:EventTicketNFT",
            "label": "isActive",
            "offset": 0,
            "slot": "3",
            "type": "t_bool"
          }
        ],
        "numberOfBytes": "128"
      },
      "t_struct(Ticket)3517_storage": {
        "encoding": "inplace",
        "label": "struct EventTicketNFT.Ticket",
        "members": [
          {
            "astId": 3510,
            "contract": "contracts/EventTicketNFT.sol:EventTicketNFT",
            "label": "id",
            "offset": 0,
            "slot": "0",
            "type": "t_uint256"
          },
          {
            "astId": 3512,
            "contract": "contracts/EventTicketNFT.sol:EventTicketNFT",
            "label": "eventId",
            "offset": 0,
            "slot": "1",
            "type": "t_uint256"
          },
          {
            "astId": 3514,
            "contract": "contracts/EventTicketNFT.sol:EventTicketNFT",
            "label": "ticketNumber",
            "offset": 0,
            "slot": "2",
            "type": "t_uint256"
          },
          {
            "astId": 3516,
            "contract": "contracts/EventTicketNFT.sol:EventTicketNFT",
            "label": "metadataURI",
            "offset": 0,
            "slot": "3",
            "type": "t_string_storage"
          }
        ],
        "numberOfBytes": "128"
      },
      "t_uint256": {
        "encoding": "inplace",
        "label": "uint256",
        "numberOfBytes": "32"
      }
    }
  }
}